:020000040800F2
:1000000000000220E5210008352200083522000802
:1000100035220008352200083522000800000000C3
:100020000000000000000000000000003522000871
:10003000352200080000000035220008CF1E00080D
:100040003522000835220008352200083522000834
:100050003522000835220008352200083522000824
:100060003522000835220008352200083522000814
:100070003522000835220008352200083522000804
:100080003522000835220008352200080000000053
:100090000000000000000000000000003522000801
:1000A00035220008352200083522000835220008D4
:1000B00035220008DD1E0008352200083522000820
:1000C00035220008352200083522000835220008B4
:1000D0003522000835220008352200080000000003
:1000E00035220008352200083522000800000000F3
:1000F00000000000000000000000000035220008A1
:1001000000000000352200083522000835220008D2
:1001100000000000000000000000000000000000DF
:100120003522000835220008352200083522000853
:100130003522000800000000000000000000000060
:100140000000000000000000000000003522000850
:100150003522000835220008352200083522000823
:1001600035220008352200080000000000000000D1
:10017000000000000000000000000000000000007F
:100180000000000035220008000000000000000010
:080190003522000835220008A9
:1001980010B5054C237833B9044B13B10448AFF3B9
:1001A80000800123237010BDEC0100200000000036
:1001B800F83C000808B5034B1BB103490348AFF3EB
:1001C800008008BD00000000F0010020F83C000895
:1001D80053B94AB9002908BF00281CBF4FF0FF31A6
:1001E8004FF0FF3000F072B9ADF1080C6DE904CEA4
:1001F80000F006F8DDF804E0DDE9022304B07047FA
:100208002DE9F047089E04468846002B4BD18A42C8
:10021800154667D9B2FA82F24AB1C2F1200701FA4B
:1002280002F320FA07F7954047EA030894404FEA9B
:10023800154E230CB8FBFEF71FFA85FC0EFB17883A
:1002480043EA084307FB0CF1994209D9EB1807F177
:10025800FF3080F01B81994240F21881023F2B4405
:100268005B1AA4B2B3FBFEF00EFB103344EA03445E
:1002780000FB0CFCA44509D92C1900F1FF3380F0D0
:100288000781A44540F2048102382C4440EA074023
:10029800A4EB0C0400271EB1D4400023C6E9004398
:1002A8003946BDE8F0878B4209D9002E00F0EB8073
:1002B8000027C6E9000138463946BDE8F087B3FA99
:1002C80083F7002F47D18B4202D3824200F2FA8093
:1002D800841A61EB030301209846002EE0D0C6E99A
:1002E8000048DDE702B9FFDEB2FA82F2002A40F0E8
:1002F8008F80491B4FEA154E1FFA85F80127B1FB7D
:10030800FEFC230C0EFB1C1143EA014308FB0CF115
:10031800994207D9EB180CF1FF3002D2994200F24A
:10032800CD808446591AA3B2B1FBFEF00EFB10141F
:1003380043EA044408FB00F8A04507D92C1900F14A
:10034800FF3302D2A04500F2B6801846A4EB080499
:1003580040EA0C409FE7C7F1200CBB4022FA0CFE94
:100368004EEA030E01FA07F420FA0CF521FA0CF311
:100378004FEA1E482543B3FBF8F92C0C08FB193348
:100388001FFA8EFA44EA034309FB0AF49C4202FA74
:1003980007F200FA07F10BD91EEB030309F1FF304E
:1003A80080F087809C4240F28480A9F1020973445E
:1003B8001B1BADB2B3FBF8F008FB103345EA03444E
:1003C80000FB0AFAA24508D91EEB040400F1FF332A
:1003D8006BD2A24569D90238744440EA0940A0FBAF
:1003E8000289A4EB0A044C45C2464B4654D351D06B
:1003F800002E69D0B1EB0A0564EB030404FA0CFC87
:10040800FD40FC404CEA0505C6E90054002747E7D3
:10041800C2F1200320FA03F7954001FA02F021FA0D
:1004280003F34FEA154E3843010CB3FBFEF71FFAEE
:1004380085F80EFB173341EA034107FB08F38B42AB
:1004480004FA02F407D9691807F1FF3C2FD28B424E
:100458002DD9023F2944CB1A81B2B3FBFEF00EFB23
:10046800103341EA034100FB08F38B4207D96918AE
:1004780000F1FF3C17D28B4215D902382944C91A1A
:1004880040EA07473BE73746304609E70746E7E6CD
:100498001846FBE64145ABD2B8EB020A69EB0E02FF
:1004A80001381346A4E76046E9E7184695E767462A
:1004B800D1E781467CE702382C4447E7ACF1020CCF
:1004C8002B442FE7384608E73746E9E6704700BF70
:1004D800034613F8012B002AFBD1181A013870477C
:1004E80081F0004102E000BF83F0004330B54FEADD
:1004F80041044FEA430594EA050F08BF90EA020F4A
:100508001FBF54EA000C55EA020C7FEA645C7FEADC
:10051800655C00F0E2804FEA5454D4EB5555B8BFFF
:100528006D420CDD2C4480EA020281EA030382EA70
:10053800000083EA010180EA020281EA0303362D02
:1005480088BF30BD11F0004F4FEA01314FF4801CD5
:100558004CEA113102D0404261EB410113F0004FE7
:100568004FEA03334CEA133302D0524263EB43039E
:1005780094EA050F00F0A780A4F10104D5F1200E3C
:100588000DDB02FA0EFC22FA05F2801841F1000197
:1005980003FA0EF2801843FA05F359410EE0A5F16B
:1005A80020050EF1200E012A03FA0EFC28BF4CF09C
:1005B800020C43FA05F3C01851EBE37101F0004552
:1005C80007D54FF0000EDCF1000C7EEB00006EEB5F
:1005D8000101B1F5801F1BD3B1F5001F0CD34908E9
:1005E8005FEA30004FEA3C0C04F101044FEA445240
:1005F80012F5800F80F09A80BCF1004F08BF5FEAC7
:10060800500C50F1000041EB045141EA050130BDA6
:100618005FEA4C0C404141EB010111F4801FA4F149
:100628000104E9D191F0000F04BF01460020B1FA9E
:1006380081F308BF2033A3F10B03B3F120020CDAD6
:100648000C3208DD02F1140CC2F10C0201FA0CF0B4
:1006580021FA02F10CE002F11402D8BFC2F1200C19
:1006680001FA02F120FA0CFCDCBF41EA0C019040CF
:10067800E41AA2BF01EB0451294330BD6FEA040418
:100688001F3C1CDA0C340EDC04F11404C4F1200203
:1006980020FA04F001FA02F340EA030021FA04F315
:1006A80045EA030130BDC4F10C04C4F1200220FA6C
:1006B80002F001FA04F340EA0300294630BD21FAAA
:1006C80004F0294630BD94F0000F83F4801306BF70
:1006D80081F480110134013D4EE77FEA645C18BF64
:1006E8007FEA655C29D094EA050F08BF90EA020FFB
:1006F80005D054EA000C04BF1946104630BD91EAF3
:10070800030F1EBF0021002030BD5FEA545C05D1F5
:100718004000494128BF41F0004130BD14F5800434
:100728003CBF01F5801130BD01F0004545F0FE41A8
:1007380041F470014FF0000030BD7FEA645C1ABFDD
:10074800194610467FEA655C1CBF0B46024650EA14
:10075800013406BF52EA033591EA030F41F4002140
:1007680030BD00BF90F0000F04BF0021704730B5C6
:100778004FF4806404F132044FF000054FF000019B
:1007880050E700BF90F0000F04BF0021704730B55C
:100798004FF4806404F1320410F0004548BF404231
:1007A8004FF000013EE700BF42004FEAE2014FEA86
:1007B80031014FEA02701FBF12F07F4393F07F4F61
:1007C80081F06051704732F07F4208BF704793F064
:1007D8007F4F04BF41F40021704730B54FF4607477
:1007E80001F0004521F000411CE700BF50EA01027A
:1007F80008BF704730B54FF000050AE050EA010223
:1008080008BF704730B511F0004502D5404261EB92
:1008180041014FF4806404F132045FEA915C3FF4D3
:10082800D8AE4FF003025FEADC0C18BF03325FEA70
:10083800DC0C18BF033202EBDC02C2F1200300FA21
:1008480003FC20FA02F001FA03FE40EA0E0021FA46
:1008580002F11444BDE600BF70B54FF0FF0C4CF434
:10086800E06C1CEA11541DBF1CEA135594EA0C0FE6
:1008780095EA0C0F00F0DEF82C4481EA030621EA21
:100888004C5123EA4C5350EA013518BF52EA03355C
:1008980041F4801143F4801338D0A0FB02CE4FF00E
:1008A8000005E1FB02E506F00042E0FB03E54FF03E
:1008B8000006E1FB03569CF0000F18BF4EF0010E36
:1008C800A4F1FF04B6F5007F64F5407404D25FEA32
:1008D8004E0E6D4146EB060642EAC62141EA5551E5
:1008E8004FEAC52040EA5E504FEACE2EB4F1FD0C27
:1008F80088BFBCF5E06F1ED8BEF1004F08BF5FEAA5
:10090800500E50F1000041EB045170BD06F0004656
:1009180046EA010140EA020081EA0301B4EB5C0403
:10092800C2BFD4EB0C0541EA045170BD41F48011FB
:100938004FF0000E013C00F3AB8014F1360FDEBF20
:10094800002001F0004170BDC4F10004203C35DAFC
:100958000C341BDC04F11404C4F1200500FA05F37F
:1009680020FA04F001FA05F240EA020001F0004220
:1009780021F0004110EBD37021FA04F642EB060196
:100988005EEA430E08BF20EAD37070BDC4F10C04C0
:10099800C4F1200500FA04F320FA05F001FA04F284
:1009A80040EA020001F0004110EBD37041F1000170
:1009B8005EEA430E08BF20EAD37070BDC4F120057B
:1009C80000FA05F24EEA020E20FA04F301FA05F2E3
:1009D80043EA020321FA04F001F0004121FA04F28B
:1009E80020EA020000EBD3705EEA430E08BF20EA5B
:1009F800D37070BD94F0000F0FD101F00046400095
:100A080041EB010111F4801F08BF013CF7D041EA16
:100A1800060195F0000F18BF704703F0004652001A
:100A280043EB030313F4801F08BF013DF7D043EAEB
:100A38000603704794EA0C0F0CEA135518BF95EAA1
:100A48000C0F0CD050EA410618BF52EA4306D1D128
:100A580081EA030101F000414FF0000070BD50EA47
:100A6800410606BF1046194652EA430619D094EAD1
:100A78000C0F02D150EA013613D195EA0C0F05D1BB
:100A880052EA03361CBF104619460AD181EA03010F
:100A980001F0004141F0FE4141F470014FF00000C7
:100AA80070BD41F0FE4141F4780170BD70B54FF062
:100AB800FF0C4CF4E06C1CEA11541DBF1CEA1355E2
:100AC80094EA0C0F95EA0C0F00F0A7F8A4EB0504C4
:100AD80081EA030E52EA03354FEA013100F08880BB
:100AE8004FEA03334FF0805545EA131343EA126384
:100AF8004FEA022245EA111545EA10654FEA002639
:100B08000EF000419D4208BF964244F1FD0404F5F1
:100B1800407402D25B084FEA3202B61A65EB03054D
:100B28005B084FEA32024FF480104FF4002CB6EB0A
:100B3800020E75EB030E22BFB61A754640EA0C008A
:100B48005B084FEA3202B6EB020E75EB030E22BFCA
:100B5800B61A754640EA5C005B084FEA3202B6EB0B
:100B6800020E75EB030E22BFB61A754640EA9C00CA
:100B78005B084FEA3202B6EB020E75EB030E22BF9A
:100B8800B61A754640EADC0055EA060E18D04FEA58
:100B9800051545EA16754FEA06164FEAC30343EAF8
:100BA80052734FEAC2025FEA1C1CC0D111F4801FC5
:100BB8000BD141EA00014FF000004FF0004CB6E7BE
:100BC80011F4801F04BF01430020B4F1FD0C88BF5D
:100BD800BCF5E06F3FF6AFAEB5EB030C04BFB6EB68
:100BE800020C5FEA500C50F1000041EB045170BD5B
:100BF8000EF0004E4EEA113114EB5C04C2BFD4EB88
:100C08000C0541EA045170BD41F480114FF0000E0B
:100C1800013C90E645EA060E8DE60CEA135594EA87
:100C28000C0F08BF95EA0C0F3FF43BAF94EA0C0F8A
:100C38000AD150EA01347FF434AF95EA0C0F7FF4FF
:100C480025AF104619462CE795EA0C0F06D152EA53
:100C580003353FF4FDAE1046194622E750EA410637
:100C680018BF52EA43067FF4C5AE50EA41047FF448
:100C78000DAF52EA43057FF4EBAE12E74FF0FF3CAD
:100C880006E000BF4FF0010C02E000BF4FF0010C7E
:100C98004DF804CD4FEA410C7FEA6C5C4FEA430CF7
:100CA80018BF7FEA6C5C1BD001B050EA410C0CBF46
:100CB80052EA430C91EA030F02BF90EA020F0020A8
:100CC800704710F1000F91EA030F58BF994208BF0F
:100CD80090422CBFD8176FEAE37040F001007047CC
:100CE8004FEA410C7FEA6C5C02D150EA013C07D123
:100CF8004FEA430C7FEA6C5CD6D152EA033CD3D06E
:100D08005DF8040B704700BF8446104662468C4667
:100D18001946634600E000BF01B5FFF7B7FF00289A
:100D280048BF10F1000F01BD4DF808EDFFF7F4FFC3
:100D38000CBF012000205DF808FB00BF4DF808ED4E
:100D4800FFF7EAFF34BF012000205DF808FB00BF71
:100D58004DF808EDFFF7E0FF94BF012000205DF893
:100D680008FB00BF4DF808EDFFF7CEFF94BF012048
:100D780000205DF808FB00BF4DF808EDFFF7C4FF41
:100D880034BF012000205DF808FB00BF4FEA410C8A
:100D98007FEA6C5C02D150EA013C0AD14FEA430C6D
:100DA8007FEA6C5C02D152EA033C02D14FF00000AA
:100DB80070474FF0010070474FEA410212F50012E8
:100DC80015D211D56FF47873B3EB625212D94FEA8A
:100DD800C12343F0004343EA505311F0004F23FA74
:100DE80002F018BF404270474FF00000704750EAC9
:100DF800013005D111F0004008BF6FF00040704786
:100E08004FF00000704700BF10B504460E4B18782D
:100E18004FF47A73B3FBF0F30C4A1068B0FBF3F0AD
:100E280000F094F868B90F2C01D901200AE00022DB
:100E380021464FF0FF3000F049F8034B5C6000207A
:100E480000E0012010BD00BF0000002018000020B5
:100E580008B50B4B1A6842F400721A601A6842F41B
:100E680080621A601A6842F480721A60032000F0E7
:100E78001BF80020FFF7C8FF01F032F9002008BD79
:100E8800003C0240034A1168034B1B780B44136073
:100E9800704700BF1402002000000020014B1868B2
:100EA800704700BF14020020074AD36823F4E063A8
:100EB8001B041B0C000200F4E060184340F0BF6004
:100EC80040F40030D060704700ED00E030B4174BBC
:100ED800DB68C3F30223C3F10704042C28BF0424EE
:100EE8001D1D062D18D9033B4FF0FF3505FA04F4F4
:100EF80021EA0401994005FA03F322EA030319439E
:100F080000280BDB0901C9B200F1604000F561401F
:100F180080F8001330BC70470023E5E700F00F00AD
:100F28000901C9B2024B1954F4E700BF00ED00E013
:100F380014ED00E000F01F02400901239340024A2B
:100F480042F82030704700BF00E100E00138B0F1FE
:100F5800807F0AD2064B5860064AF02182F8231097
:100F68000020986007221A6070470120704700BF70
:100F780010E000E000ED00E0042805D0054A136801
:100F880023F0040313607047024A136843F0040314
:100F98001360704710E000E0704708B5FFF7FCFFEA
:100FA80008BD000000230F2B00F2C580F0B482B00A
:100FB80039E0042200E00022B2403A4302345E4E97
:100FC80046F824205D4A1468EA4302EA04064F689A
:100FD80017F4803F01D045EA0406584C266064683F
:100FE80002EA04064F6817F4003F01D045EA0406F8
:100FF800524C6660A46802EA04064F6817F4801F22
:1010080001D045EA04064D4CA660E46822404E68CB
:1010180016F4001F01D045EA0402484CE26001338F
:101028000F2B00F2858001229A400C6804EA020521
:10103800AA42F4D14C68022C01D0122C10D1DE083F
:10104800083650F826C003F00704A7000F24BC4058
:101058002CEA040C0C69BC4044EA0C0440F8264015
:1010680004685F000326BE40F64306EA040C4C6899
:1010780004F00304BC4044EA0C0404604C6804F126
:10108800FF3CBCF1010F03D9112C01D0122C10D157
:10109800846806EA040CCC68BC4044EA0C0484600A
:1010A800446824EA02024C68C4F300149C401443C8
:1010B8004460C26816408A68BA403243C2604A68CF
:1010C80012F0805FABD0002201921D4A546C44F4A8
:1010D80080445464526C02F480420192019A9C0844
:1010E800A61C154A52F8267003F0030296000F2238
:1010F800B24027EA0207134A90423FF45CAF02F578
:10110800806290420ED002F5806290420CD002F5C7
:10111800806290420AD002F5806290423FF449AF63
:10112800072249E7012247E7022245E7032243E76E
:1011380002B0F0BC7047704700380140003C0140E5
:101148000038024000000240002800F0BB8170B562
:1011580082B00446036813F0010F3BD0A74B9B688D
:1011680003F00C03042B2CD0A44B9B6803F00C0356
:10117800082B21D06368B3F5803F4FD0B3F5A02F7B
:1011880052D09E4B1A6822F480321A601A6822F4F0
:1011980080221A606368002B50D0FFF77FFE054657
:1011A800964B1B6813F4003F14D1FFF777FE401BE2
:1011B8006428F5D903208AE1904B5B6813F4800F0B
:1011C800D8D08E4B1B6813F4003F03D06368002B04
:1011D80000F07A81236813F0020F55D0874B9B6883
:1011E80013F00C0F3ED0854B9B6803F00C03082BC3
:1011F80033D0E368002B68D0814B01221A60FFF7D7
:101208004DFE05467D4B1B6813F0020F54D1FFF7C6
:1012180045FE401B0228F5D9032058E1774A136898
:1012280043F480331360B5E7744B1A6842F48022A4
:101238001A601A6842F480321A60ABE7FFF72EFE94
:1012480005466E4B1B6813F4003FC3D0FFF726FE1C
:10125800401B6428F5D9032039E1684B5B6813F417
:10126800800FC6D1654B1B6813F0020F04D0E368EA
:10127800012B01D001202AE1604A136823F0F8030A
:10128800216943EAC1031360236813F0080F40D0B3
:10129800636963B35B4B01221A60FFF7FFFD0546E4
:1012A800564B5B6F13F0020F33D1FFF7F7FD401B6E
:1012B8000228F5D903200AE1504A136823F0F803FD
:1012C800216943EAC1031360DEE74D4B00221A602F
:1012D800FFF7E4FD0546494B1B6813F0020FD3D016
:1012E800FFF7DCFD401B0228F5D90320EFE0454B52
:1012F80000221A60FFF7D2FD0546404B5B6F13F0E2
:10130800020F06D0FFF7CAFD401B0228F5D90320BB
:10131800DDE0236813F0040F79D0384B1B6C13F011
:10132800805F33D100230193344B1A6C42F0805212
:101338001A641B6C03F080530193019B0125324B07
:101348001B6813F4807F23D0A368012B34D0052BAE
:1013580038D02A4B1A6F22F001021A671A6F22F04E
:1013680004021A67A368002B36D0FFF797FD0646DC
:10137800224B1B6F13F0020F48D1FFF78FFD801B24
:1013880041F288339842F3D90320A0E00025D6E73C
:101398001D4A136843F480731360FFF77FFD064608
:1013A800194B1B6813F4807FCED1FFF777FD801BA4
:1013B8000228F5D903208AE0104A136F43F001038D
:1013C8001367CFE70D4B1A6F42F004021A671A6FC2
:1013D80042F001021A67C5E7FFF760FD0646074BB2
:1013E8001B6F13F0020F11D0FFF758FD801B41F25D
:1013F80088339842F3D9032069E000BF00380240DF
:1014080000004742800E474200700040E5B9A369DA
:10141800002B5BD0304A926802F00C02082A58D0A0
:10142800022B17D02D4B00221A60FFF737FD044618
:10143800294B1B6813F0007F42D0FFF72FFD001BDC
:101448000228F5D9032042E0234A136C23F0805385
:101458001364DCE7214B00221A60FFF71FFD0546E5
:101468001D4B1B6813F0007F06D0FFF717FD401BCC
:101478000228F5D903202AE0E369226A1343626A45
:1014880043EA8213A26A5208013A43EA0243E26A33
:1014980043EA0263104A5360104B01221A60FFF7B7
:1014A800FDFC04460C4B1B6813F0007F06D1FFF7C8
:1014B800F5FC001B0228F5D9032008E0002006E00F
:1014C800002004E001207047012000E0002002B065
:1014D80070BD0120FBE700BF0038024060004742B2
:1014E800264B9B6803F00C03042B44D0082B01D037
:1014F800234870472DE9F04B204B5A6802F03F0211
:101508005B6813F4800F13D01C4B5968C1F3881122
:1015180000231C48A1FB0001FEF75AFE174B5B682D
:10152800C3F3014301335B00B0FBF3F0BDE8F08B7C
:10153800124B5B68C3F388131E4600275C01002525
:10154800E41A65EB0705A90141EA9461A001001BB3
:1015580061EB0501CB0043EA5073C400A01943EBCB
:1015680007018B0243EA9053840220461946002360
:10157800FEF72EFED2E70348704700BF003802404E
:101588000024F40040787D01002800F09D8070B5AB
:1015980004464F4B1B6803F00F038B4209D2CBB2B2
:1015A8004B4A1370136803F00F038B4201D00120DC
:1015B80070BD236813F0020F17D013F0040F04D086
:1015C800444A936843F4E0539360236813F0080F88
:1015D80004D0404A936843F4604393603D4A93685B
:1015E80023F0F003A068034393600D46236813F0CB
:1015F800010F32D06368012B21D09A1E012A25D908
:10160800344A126812F0020F60D032498A6822F018
:10161800030213438B60FFF741FC06462D4B9B6882
:1016280003F00C036268B3EB820F16D0FFF736FCA9
:10163800801B41F288339842F0D90320B8E7254A45
:10164800126812F4003FE0D10120B1E7214A126884
:1016580012F0007FD9D10120AAE71D4B1B6803F0C7
:101668000F03AB4209D9EAB2194B1A701B6803F091
:101678000F03AB4201D001209AE7236813F0040F4F
:1016880006D0144A936823F4E053E1680B4393604F
:10169800236813F0080F07D00E4A936823F46043B9
:1016A800216943EAC1039360FFF71AFF094B9B685E
:1016B800C3F30313084AD35CD840084B18600020D2
:1016C800FFF7A2FB002073E70120704701206FE7B6
:1016D800003C024000380240103D0008180000207D
:1016E800014B1868704700BF1800002008B5FFF7C5
:1016F800F7FF044B9B68C3F38223034AD35CD840AB
:1017080008BD00BF00380240203D000808B5FFF7BB
:10171800E7FF044B9B68C3F34233034AD35CD840CA
:1017280008BD00BF00380240203D000870B4036ABD
:1017380023F001030362036A4268846924F0730496
:101748000D6845EA040623F002048B6823430B4D19
:10175800A84206D0426086614A684263036270BC50
:10176800704723F00803CC68234323F0040322F4D2
:1017780040724C6914438A692243EBE70000014038
:1017880030B4036A23F480730362036A4268C4694D
:1017980024F073040D682C4323F400738D6843EA26
:1017A80005230D4DA84206D04260C4614A68C26351
:1017B800036230BC704723F40063CD6843EA052315
:1017C80023F4806322F440524D6942EA05128D6980
:1017D80042EA0512E8E700BF0000014030B4036A9E
:1017E80023F480530362036A4468C26922F4E64220
:1017F8000D6842EA052223F400538D6843EA053355
:10180800074DA84206D04460C2614A680264036278
:1018180030BC704724F480444D6944EA8514F2E7EB
:101828000000014070477047704770477047704725
:1018380010B5044603681A6912F0020F11D0DA686D
:1018480012F0020F0DD06FF002021A610123037625
:1018580003689B6913F0030F70D0FFF7E6FF0023BE
:10186800237623681A6912F0040F12D0DA6812F08E
:10187800040F0ED06FF004021A6102232376236846
:101888009B6913F4407F5FD02046FFF7CEFF00230B
:10189800237623681A6912F0080F12D0DA6812F05A
:1018A800080F0ED06FF008021A610423237623680C
:1018B800DB6913F0030F4ED02046FFF7B6FF002375
:1018C800237623681A6912F0100F12D0DA6812F022
:1018D800100F0ED06FF010021A61082323762368C8
:1018E800DB6913F4407F3DD02046FFF79EFF0023BD
:1018F800237623681A6912F0010F03D0DA6812F010
:10190800010F36D123681A6912F0800F03D0DA6804
:1019180012F0800F34D123681A6912F0400F03D0F7
:10192800DA6812F0400F32D123681A6912F0200FDA
:1019380003D0DA6812F0200F30D110BDFFF774FF22
:101948002046FFF773FF8AE72046FFF76DFF204622
:10195800FFF76CFF9BE72046FFF766FF2046FFF77F
:1019680065FFACE72046FFF75FFF2046FFF75EFF05
:10197800BDE76FF001021A612046FFF754FFC1E787
:101988006FF080021A61204600F0D2F8C3E76FF0CA
:1019980040021A612046FFF74AFFC5E76FF02002B0
:1019A8001A61204600F0C3F8C7E700000368234A1D
:1019B80090420ED0B0F1804F0BD0A2F57C429042FD
:1019C80007D002F58062904203D002F5806290420F
:1019D80003D123F070034A681343184A90421AD07F
:1019E800B0F1804F17D0A2F57C42904213D002F597
:1019F800806290420FD002F5806290420BD002F5CF
:101A08009A32904207D002F58062904203D002F5E4
:101A18008062904203D123F44073CA681343036081
:101A28008B68C3620B688362044B984202D001231F
:101A3800436170470B690363F9E700BF0000014089
:101A4800A8B110B5044690F839305BB1022384F888
:101A58003930211D2068FFF7A9FF012384F83930A8
:101A6800002010BD80F83830FFF7DCFEEEE70120DB
:101A78007047000030B4036A23F010030362036A5E
:101A88004468826922F4E6420D6842EA052223F09E
:101A980020038D6843EA05130C4DA84206D0446024
:101AA80082614A688263036230BC704723F0800316
:101AB800CD6843EA051323F0400324F440644D69DC
:101AC80044EA85048D6944EA8504E8E7000001409A
:101AD80090F83830012B28D010B50446012380F83F
:101AE8003830022380F839300C2A0BD8DFE802F0AE
:101AF800070A0A0A110A0A0A150A0A0A19000068D6
:101B0800FFF714FE012384F83930002084F83800E8
:101B180010BD0068FFF7AEFFF4E70068FFF730FE7E
:101B2800F0E70068FFF75AFEECE7022070477047BD
:101B3800704700002DE9F843044601680A6922F459
:101B48004052C36813430B610168CA6822F4164205
:101B580022F00C0283680069034360690343E0696B
:101B680003431343CB6021684A6922F44072A36996
:101B780013434B61E369B3F5004F60D02368B84A5B
:101B8800934200F0148102F58062934200F00F81C5
:101B9800FFF7ACFD00EB800000EB80006568AD004E
:101BA800B0FBF5F5AF4FA7FB05356D092E01FFF723
:101BB8009DFD00EB800000EB80006568AD00B0FB88
:101BC800F5F9FFF793FD00EB800000EB80006568F6
:101BD800AD00B0FBF5F5A7FB05356D094FF06408BE
:101BE80008FB15952D013235A7FB05356D0905F064
:101BF800F0053544FFF77AFD00EB800000EB80002C
:101C08006668B600B0FBF6F6FFF770FD00EB8000E3
:101C180000EB800063689B00B0FBF3F0A7FB00308B
:101C2800400908FB10684FEA081808F13208A7FBBA
:101C38000837C7F3431723682F449F600DE12368D3
:101C4800874A93425BD002F58062934257D0FFF7F0
:101C58004DFD00EB800000EB800065686D00B0FB77
:101C6800F5F5804FA7FB05356D092E01FFF73EFD01
:101C780000EB800000EB800065686D00B0FBF5F9B3
:101C8800FFF734FD00EB800000EB800065686D0015
:101C9800B0FBF5F5A7FB05356D094FF0640808FBA7
:101CA8001595ED003235A7FB05356D096D0005F476
:101CB800F8753544FFF71AFD00EB800000EB800053
:101CC80066687600B0FBF6F6FFF710FD00EB8000C3
:101CD80000EB800063685B00B0FBF3F3A7FB032312
:101CE8005B0908FB13684FEAC80808F13208A7FB2C
:101CF8000837C7F3421723682F449F60ADE0FFF70A
:101D080005FD00EB800000EB800065686D00B0FB0E
:101D1800F5F5544FA7FB05356D092E01FFF7F6FCC5
:101D280000EB800000EB800065686D00B0FBF5F902
:101D3800FFF7ECFC00EB800000EB800065686D00AD
:101D4800B0FBF5F5A7FB05356D094FF0640808FBF6
:101D58001595ED003235A7FB05356D096D0005F4C5
:101D6800F8753544FFF7D2FC00EB800000EB8000EB
:101D780066687600B0FBF6F6FFF7C8FC00EB80005B
:101D880000EB800063685B00B0FBF3F3A7FB032361
:101D98005B0908FB13684FEAC80808F13208A7FB7B
:101DA8000837C7F3421723682F449F6055E0FFF7B1
:101DB800ADFC00EB800000EB80006568AD00B0FB77
:101DC800F5F5284FA7FB05356D092E01FFF79EFC99
:101DD80000EB800000EB80006568AD00B0FBF5F912
:101DE800FFF794FC00EB800000EB80006568AD0015
:101DF800B0FBF5F5A7FB05356D094FF0640808FB46
:101E080015952D013235A7FB05356D0905F0F0054F
:101E18003544FFF77BFC00EB800000EB8000666830
:101E2800B600B0FBF6F6FFF771FC00EB800000EBA4
:101E3800800063689B00B0FBF3F0A7FB003040090B
:101E480008FB10684FEA081808F13208A7FB0837A2
:101E5800C7F3431723682F449F60BDE8F88300BF8A
:101E6800001001401F85EB5158B310B5044690F897
:101E780039300BB3242384F839302268D36823F42B
:101E88000053D3602046FFF755FE2268136923F4F8
:101E9800904313612268536923F02A03536122682F
:101EA800D36843F40053D3600020E063202384F810
:101EB800393084F83A3010BD80F8383000F02EF907
:101EC800D8E70120704708B5FEF7DCFFFFF765F893
:101ED80008BD000008B50248FFF7AAFC08BD00BF0E
:101EE8001802002000B587B0002100910A4B1A6B38
:101EF80042F001021A631B6B03F001030093009B7D
:101F08002023019301230293039101A90348FFF7BA
:101F180049F807B05DF804FB0038024000000240B1
:101F2800FEE7000000B589B01F48204B03604FF062
:101F3800FF33C36001234360FFF782FD002829D1E6
:101F48003023019300220392194B1B68029301A9C5
:101F58001548FFF7BDFDF8B9154B5B6802930022E1
:101F680001A91148FFF7B4FDC0B9114B9B68029352
:101F7800002201A90C48FFF7ABFD88B90C4BDB68C0
:101F88000293002201A90848FFF7A2FD50B909B041
:101F98005DF804FBFFF7C4FFFFF7C2FFFFF7C0FFC0
:101FA800FFF7BEFFFFF7BCFF180200200004004047
:101FB8000800002000B593B0072306930123099376
:101FC80008934FF48033079310230A9302230C934A
:101FD80000230D93542832D0782841D032282BD1B1
:101FE80008230E9332230F930223109311930F2289
:101FF80001920293002303934FF4805204920593B5
:1020080006A8FFF7A1F800283DD1022101A8FFF793
:10201800BBFA002839D1FFF763FB1D4BA3FB003047
:102028008009FEF793FF0420FEF7A6FF0022114661
:102038004FF0FF30FEF74AFF13B05DF804FB0823AA
:102048000E9354230F930223109311930F2201929E
:102058000293002303934FF4805204920593CFE731
:1020680008230E9378230F930223109311930F22C2
:1020780001920293002303934FF4A05304934FF467
:1020880080530593BCE7FFF74BFFFFF749FF00BFFD
:10209800D34D621008B50948094B03604FF4E1338A
:1020A800436000238360C36003610C224261836143
:1020B800FFF7DAFE00B908BDFFF732FF540200202F
:1020C8000044004008B5FEF7C3FE3220FFF772FF58
:1020D800FFF708FFFFF7DEFFFFF724FFFEE700002A
:1020E80008B50320FEF7E0FE0B4A536A43F4E023E9
:1020F8005362002211466FF00B00FEF7E7FE002244
:1021080011466FF00A00FEF7E1FE002211466FF05B
:102118000900FEF7DBFE08BD00ED00E030B589B030
:1021280000240194184B1A6C42F400321A641A6C99
:1021380002F400320192019A02941A6B42F00102F1
:102148001A631B6B03F001030293029B042303939E
:1021580002230493012305930694072307930B4D49
:1021680003A92846FEF71EFF0823039303A9284660
:10217800FEF718FF2620FEF7DDFE22460F21262057
:10218800FEF7A4FE09B030BD00380240000002404E
:102198000F49D1F8883043F47003C1F888300D4BEB
:1021A8001A6842F001021A60002098601A6822F04A
:1021B800847222F480321A60074A5A601A6822F43C
:1021C80080221A60D8604FF000638B60704700BFB0
:1021D80000ED00E00038024010300024DFF834D071
:1021E800002103E00C4B5B58435004310B480C4B67
:1021F80042189A42F6D30B4A02E0002342F8043B05
:10220800094B9A42F9D3FFF7C3FF00F011F8FFF723
:1022180059FF704700000220603F000800000020BE
:10222800EC010020EC01002098020020FEE70000ED
:1022380070B50D4E0D4CA41BA4100025A54209D164
:102248000B4E0C4C01F054FDA41BA4100025A54214
:1022580005D170BD56F8253098470135EEE756F898
:10226800253098470135F2E7583F0008583F0008E5
:10227800583F00085C3F000802440346934200D1DF
:10228800704703F8011BF9E72DE9FF4755EC104BA0
:102298000D9FDDF830A0002D0E4691461946B8BFB7
:1022A80022462B4627F02007BBBF05F100431D46F9
:1022B80000232D23B8BF1446462F0B7004D0452F9A
:1022C80000D10136022100E0032103AB019302ABE8
:1022D80000933246534645EC104B00F0ADFB472FB8
:1022E800804602D119F0010F26D0462F08EB0609C7
:1022F80011D198F80030302B0AD100220023204653
:102308002946FEF711FD18B9C6F10106CAF80060A2
:10231800DAF8003099440022002320462946FEF7C7
:1023280003FD38B93022039B4B4505D2591C039154
:102338001A70F8E7CDF80C90039B0E9AA3EB0803EC
:102348004046136004B0BDE8F087F7B5002904469D
:10235800BABF49422D232B23092904F8022B4370C5
:1023680020DD0DF107031F460A2691FBF6F506FB53
:1023780015113031092D03F8011C03F1FF322946EC
:1023880009DC3031023B02F8011CBB42224604D36F
:10239800101A03B0F0BD1346E7E713F8012B04F851
:1023A800012BF2E7302319448370021DC170EFE757
:1023B8002DE9F04F8DB00C46DDF8588016461F46C3
:1023C800054601F0F1F8036804931846FEF780F813
:1023D80000230A93D8F800300590073323F0070349
:1023E80003F1080294F818A0D4F800B0C8F8002047
:1023F800D3E90023C4E91223D4E9128929F0004360
:102408000793CDF818804FF0FF32A74BDDE906019E
:10241800FEF7BCFC70BB4FF0FF32A34BDDE90601B1
:10242800FEF796FC30BB0022002340464946FEF7E3
:1024380085FC10B12D2384F843309C4A9C4BBAF19B
:10244800470F8CBF9046984603232BF00402236164
:1024580022604FF00009009733460BAA2146284610
:1024680000F0E6F9013040F08D804FF0FF300DB0FC
:10247800BDE8F08F42464B4640464946FEF786FC8B
:1024880010B18C4A8C4BDAE761684B1C4BF48062C4
:102498000AA83ED1062363600023CDE9020309ABF5
:1024A800009349EC108B0DF123032260CDF804A0B2
:1024B80061682846FFF7E8FE0AF0DF03472B8046ED
:1024C80009D1099BD81C02DB6268934247DDAAF157
:1024D800020A5FFA8AFABAF1650F099924D8013914
:1024E800524604F150000991FFF72FFF0A9A13187A
:1024F800012A8146236102DC2268D10701D5013314
:1025080023619DF82330002BA5D02D2384F8433078
:10251800A1E7BAF1670F00F07781BAF1470FBBD195
:102528000029B9D10123B6E7BAF1660F19D10029FC
:1025380063680CDD216113B92268D20702D5013323
:102548000B442361099BA3654FF00009D9E713B930
:102558002268D00701D50233F3E70123F1E74FF0F2
:10256800670ADDE90932934205DB22682361D10756
:10257800E8D50133E5E7002BD4BFC3F102030123FB
:102588001344DEE723685A0507D4236942463146D7
:102598002846B84701302BD167E7BAF1650F40F2FA
:1025A800DC8000220023D4E91201FEF7BDFB0028DD
:1025B80033D00123414A31462846B84701303FF419
:1025C80054AFDDE909239A4202DB2368D8070FD507
:1025D800DDE9042331462846B84701303FF445AFCA
:1025E8004FF0000804F11A090A9B013B434509DC36
:1025F80023689B0700F10381E0680B9B9842B8BFF2
:10260800184634E701234A4631462846B847013080
:102618003FF42BAF08F10108E6E7099B002B2BDC00
:102628000123264A31462846B84701303FF41DAFFA
:10263800099B23B90A9B13B92368D907D8D5DDE9C3
:10264800042331462846B84701303FF40EAF4FF017
:10265800000904F11A0A099B5B424B4501DC0A9BFD
:1026680094E70123524631462846B84701303FF4E3
:10267800FCAE09F10109EEE70A9AA36D9A42A8BFD8
:102688001A46002A914607DD134631464246284637
:10269800B84701303FF4E9AE04F11A034FF0000BDC
:1026A80029EAE979069315E0FFFFEF7F2C3D000842
:1026B800283D0008343D0008303D0008383D00083A
:1026C8000123069A31462846B84701303FF4CDAE7B
:1026D8000BF1010BD4F858A0AAEB09035B45EFDC1A
:1026E800DDE909239A42D04415DB2368DA0712D4BE
:1026F8000A9B0999A3EB0A02A3EB010A9245A8BF1A
:102708009246BAF1000F0EDC4FF000082AEAEA7A86
:1027180004F11A0919E0DDE9042331462846B847CF
:102728000130E5D1A1E65346424631462846B8472E
:102738000130E9D199E601234A4631462846B8478F
:1027480001303FF492AE08F10108DDE909239B1A34
:10275800A3EB0A034345EEDC4AE70A9A012A01DCA7
:10276800DB073AD50123424631462846B8470130AF
:102778003FF47BAEDDE9042331462846B8470130F3
:1027880008F101083FF471AE0A9B002203F1FF3AF9
:10279800D4E912010023FEF7C7FAC8B953464246E6
:1027A80031462846B84701300ED15EE6012352462D
:1027B80031462846B84701303FF457AE08F10108C2
:1027C8000A9B013B4345F1DC4B4604F15002DEE62F
:1027D8004FF0000804F11A0AF2E70123DFE70123AA
:1027E8004A4631462846B84701303FF43EAE08F124
:1027F8000108E3680B9A9B1A4345F0DCFCE64FF0AE
:10280800000804F11909F4E700293FF48BAE00230E
:10281800CDE9020309AB009349EC108B2260CDF897
:1028280004A00DF123032846FFF72EFD804648E655
:102838002DE9F04791461F468A680B69DDF820802C
:102848009342B8BF1346C9F8003091F843200646B2
:102858000C4612B10133C9F800302368990642BF0B
:10286800D9F800300233C9F80030256815F006059C
:1028780007D104F1190AE368D9F800209B1AAB4282
:1028880028DC94F843302268003318BF01239206ED
:102898002DD404F1430239463046C047013020D0D8
:1028A8002368E568D9F8002003F00603042B08BF65
:1028B800AD1AA36822690CBF25EAE5750025934285
:1028C800C4BF9B1AED184FF000091A344D451AD1B0
:1028D800002008E00123524639463046C0470130FF
:1028E80003D14FF0FF30BDE8F0870135C3E7E118A9
:1028F8005A1C302081F84300224494F8451082F88D
:1029080043100233C5E70123224639463046C04703
:102918000130E6D009F10109D8E72DE9F74F03693D
:102928000C69A3428046C0F28280013C01F1140781
:102938004FEA840C00F1140657F8245056F8240086
:1029480006EB0C03013507EB0C090193B0FBF5F519
:1029580095B34FF0000A3846B646D34650F8042BD4
:1029680093B205FB03A34FEA134A9BB2ABEB0303F5
:10297800120CDEF800B005FB02A213FA8BF34FEA43
:10298800124A1FFA82FBDEF80020CBEB124202EB60
:1029980023429BB243EA024381454FEA224B4EF859
:1029A800043BDBD256F80C3033B9019B043B9E4202
:1029B8001A4630D3C8F81040404601F02BF80028DA
:1029C80025DB013530464FF0000C57F8042BD0F8C2
:1029D80000E093B2ACEB0303120C13FA8EF3C2EBD4
:1029E8001E4202EB23429BB243EA0243B9454FEA37
:1029F800224C40F8043BE8D256F8242006EB840326
:102A08002AB9043B9E421A460BD3C8F81040284600
:102A180003B0BDE8F08F1268043B002ACAD1013C1C
:102A2800C5E71268043B002AEFD1013CEAE7002021
:102A3800EEE70000000000002DE9F04F57EC106BA6
:102A480097B0456A069104460B921293DDF8808090
:102A5800CDE900673DB9102000F0B4FD6062C0E91F
:102A680001550560C560636A196851B15A684A60C2
:102A7800012393408B60204600F0EBFD636A00223F
:102A88001A603B1EBBBF23F00043019300230122C1
:102A9800ACBFC8F80030C8F80020AF4BDDF80480A0
:102AA80033EA080314D1129A42F20F731360009BA1
:102AB80023B9C8F31300002800F04285219BDFF8F2
:102AC800ACB2002B00F044850BF1030300F03EBDCF
:102AD800DDE900670022002330463946FEF724F975
:102AE800814668B1129A01231360219B002B00F0E4
:102AF80024859A4B219A03F1FF3B136000F028BD0F
:102B080014AA15A947EC106B204600F0FAFFC8F389
:102B18000A550490002D7CD0C7F3130343F07F5B64
:102B2800B2464BF4401BA5F2FF35CDF84C9000227D
:102B38008B4B50465946FDF7D7FC81A3D3E90023B8
:102B4800FDF78AFE80A3D3E90023FDF7CFFC0646F4
:102B580028460F46FDF716FE7DA3D3E90023FDF7AF
:102B68007BFE02460B4630463946FDF7BFFC06465B
:102B78000F46FEF721F900228246002330463946E7
:102B8800FEF7DCF848B15046FDF7FCFD32463B46FF
:102B9800FEF7CAF808B90AF1FF3ABAF1160F59D880
:102BA800704901EBCA01DDE90023D1E90001FEF714
:102BB800E3F8002850D00AF1FF3A00230F93149B42
:102BC8005D1BB5F1010849BFC5F101030023059359
:102BD8004FF0000858BF0593BAF1000F3EDB002301
:102BE800D044CDF838A00793069B092B00F29080BB
:102BF800052BC4BF043B0693069BA3F10203CCBF7D
:102C080000250125032B00F28F80DFE803F07D7F8C
:102C18003171DDE914531D4405F23240202813DDDB
:102C2800C0F14000009B08FA00F805F2124023FAB0
:102C380000F048EA0000FDF795FD01238246A1F166
:102C4800F87B013D139372E7009BC0F1200003FA63
:102C580000F0F0E70123B1E70F90B0E7059BA3EB85
:102C68000A030593CAF10003079300230E93BBE7F9
:102C780001230A930B9B002B59DD02939946666A40
:102C880000227260042202F114009842716853D93C
:102C9800204600F0AAFC636A3060B9F10E0FD3F841
:102CA80000B000F2E680002D00F0E3809DED007B8F
:102CB800BAF1000F8DED107B74DD2A4A0AF00F037C
:102CC80002EBC30393ED007B4FEA2A16F0068DED65
:102CD800087B65D5244BDDE91001D3E90823FDF70E
:102CE800E5FECDE9000106F00F0603251E4F4CE076
:102CF80001230A930B9B534403F1010902934B46AA
:102D0800012BB8BF0123BAE70023B2E70023F0E79D
:102D18000125002306930A954FF0FF330293994645
:102D2800002212230B92AAE701230A93F4E7012356
:102D3800029399461A46F5E7013171605200A2E7FD
:102D480061436F63A787D23FB3C8608B288AC63FA9
:102D5800FB799F501344D33F0000F07F393D0008B2
:102D68000000F83F703D0008483D0008433D00085A
:102D7800F10708D5DDE90801D7E90023FDF76CFD67
:102D8800CDE90801013576100837002EF0D1DDE9CC
:102D98000823DDE90001FDF789FECDE900011AE00D
:102DA8000225A3E700F0A080CAF100069F4BA04FC0
:102DB80006F00F0203EBC203D3E90023DDE910019B
:102DC800FDF74AFDCDE90001361100230225002E4A
:102DD8007FD1002BE1D10F9B002B00F08780DDE92C
:102DE80000670022934B30463946FDF7A7FF0028BD
:102DF8007CD0B9F1000F79D0029B002B35DD0AF1A8
:102E0800FF330893394600228B4B3046FDF724FDEB
:102E1800CDE90001029F01352846FDF7B3FCDDE945
:102E28000023FDF719FD0022844BFDF75FFB0546E3
:102E3800A1F15076002F5DD10022814BDDE9000120
:102E4800FDF752FB2A463346CDE90001FDF794FF12
:102E5800002840F088822A4606F10043DDE9000197
:102E6800FDF76CFF002840F07C82DDE91023CDE9F6
:102E78000023159B002BC0F25081BAF10E0F00F30E
:102E88004C816A4B03EBCA0393ED007B0B9B002B31
:102E98008DED027B80F2D880B9F1000F00F3D48069
:102EA80040F05E820022664B51EC170BFDF7D4FC14
:102EB800DDE90023FDF756FF4F464E46002840F057
:102EC800348231230BF101058BF800300AF1010A35
:102ED8002FE2F20705D5D7E90023FDF7BDFC013540
:102EE80001237610083772E7022574E7CDF820A091
:102EF8004F4691E74D4B03EBC70353E902010A9B89
:102F0800002B47D002460B4600204E49FDF7CEFD68
:102F18002A463346FDF7E8FACDE90C015D46DDE9BE
:102F28000001FDF749FF0646FDF72CFC02460B465B
:102F3800DDE90001FDF7D8FA303605F8016BDDE967
:102F48000C23CDE90001FDF7F9FE002863D1DDE986
:102F5800002300203749FDF7C7FADDE90C23FDF708
:102F6800EDFE002840F0B780A5EB0B039F427FF7EA
:102F78007CAF0022304BDDE90C01FDF76DFC00222F
:102F8800CDE90C012C4BDDE90001FDF765FCCDE92D
:102F98000001C4E72A463346FDF75EFCCDE90C0183
:102FA8000BEB07055E46DDE90001FDF705FF074667
:102FB800FDF7E8FB303702460B46DDE90001FDF777
:102FC80093FA06F8017BAE42CDE900014FF000020A
:102FD80026D11C4BDDE90C01FDF788FA02460B46A9
:102FE800DDE90001FDF7C8FE002874D1DDE90C23F6
:102FF80000201449FDF778FA02460B46DDE9000186
:10300800FDF79CFE00283FF430AF15F8013C302B4B
:1030180005F1FF3202D0DDF820A04AE01546F4E7BA
:10302800054BFDF719FCCDE90001BCE7703D000830
:10303800483D00080000F03F0000244000001C400C
:10304800000014400000E03FDDE900675D46DDE96F
:10305800022330463946FDF729FDFDF7ADFE8046CF
:10306800FDF790FBDDE90223FDF7F6FB02460B4670
:103078003046394608F13006FDF736FA05F8016B97
:10308800A5EB0B06B14502460B4639D1FDF72EFAE2
:10309800DDE9022306460F46FDF76EFEC8B9DDE9F5
:1030A800022330463946FDF73FFE10B118F0010FF4
:1030B8000FD10499204600F0CCFA0023129A2B7005
:1030C8000AF101031360219B002B00F041821D606F
:1030D8003EE2CDF820A015F8012C392A05F1FF337E
:1030E80008D19B450AD1089B0133089330238BF8FC
:1030F80000305B461A7801321A708CE71D46EAE701
:1031080000229B4BFDF7A8FB0022002306460F4632
:10311800FDF70AFE00289AD0CBE70A9A002A00F0A9
:103128008B80069A012A6EDC139A002A67D003F274
:103138003343079F059D059A01211A4420460592AD
:10314800984400F026FB0646002D0CDDB8F1000F70
:1031580009DD4545059A2B46A8BF4346D21A059274
:10316800ED1AA8EB0308079BEBB10A9B002B67D06D
:103178008FB131463A46204600F0AAFB049A014630
:103188000646204600F00EFB04990890204600F001
:1031980060FA089B0493079BDA1B04D00499204625
:1031A80000F096FB04900121204600F0F2FA0E9BF5
:1031B8000746002B00F0D0811A460146204600F051
:1031C80087FB069B012B074640DC009B002B39D16F
:1031D800019BC3F31303002B36D1019B23F000435B
:1031E8001B0D1B052BB1059B0133059308F1010845
:1031F800012307930E9B002B2AD1012030E0149B5A
:10320800C3F1360395E7079B09F1FF37BB42BFBF00
:10321800079B0797FA1A0E9BBBBF9B180E93DF1BE1
:103228000027B9F1000FB5BF059B059DA3EB090564
:103238004B46B8BF00237EE7079F059D0A9E83E79C
:10324800079AABE70023D4E7009BD2E70023079354
:103258003B6907EB8303186900F04DFAC0F12000C1
:10326800404410F01F0047D0C0F12003042B3BDD81
:10327800059BC0F11C000344059305448044059B4D
:10328800002B05DD1A460499204600F06FFB0490D8
:10329800B8F1000F05DD39464246204600F066FBCE
:1032A80007460F9B53B33946049800F0B3FB002838
:1032B80024DA00230A220499204600F0E1F90A9B47
:1032C80004900AF1FF3A002B00F04D8100233146AB
:1032D8000A22204600F0D4F9029B002B06464FDC58
:1032E800069B022B4CDD11E0C9D0059A1C331A4409
:1032F80005921D449844C2E70346F6E7B9F1000F6A
:1033080038DC069B022B35DDCDF80890029B63B9AB
:1033180039460522204600F0B3F9014607460498CD
:1033280000F078FB00283FF7CCAD0B9B5D466FEAB9
:10333800030A4FF000093946204600F08AF9002EAA
:103348003FF4B7AEB9F1000F05D0B14503D04946F7
:10335800204600F07EF93146204600F07AF9A8E6CA
:1033680000273E46E1E7DDF820A03E46A9E500BF7C
:10337800000024400A9BCDF80890002B00F0FA804A
:10338800002D05DD31462A46204600F0EFFA0646B4
:10339800079B002B4CD07168204600F026F9326953
:1033A80002320546920006F10C010C3000F012F9C9
:1033B80001222946204600F0D9FA009BCDF814B026
:1033C80003F00103B1460793064639460498FFF710
:1033D800A4FA4946054600F13008049800F01AFBA3
:1033E800324600903946204600F02EFBC36802465C
:1033F80003BB01460890049800F00CFB089A0346AA
:1034080011462046089300F024F9089BA3B9069AB0
:1034180092B9079A82B9B8F1390F29D0009B002BCD
:1034280001DD05F13108059B5D1C83F8008082E70A
:103438003046C2E70123E3E7009A002A04DB25D1DE
:10344800069A1ABB079A0ABB002BECDD01220499E5
:10345800204600F08BFA3946049000F0DBFA002889
:1034680003DCE0D118F0010FDDD0B8F1390FD8D165
:10347800059B059A5D1C3923137015F8013C392BFF
:1034880005F1FF324FD00133137054E7059A002B32
:1034980002F1010506DDB8F1390FE9D008F101089C
:1034A800059BC2E7029A05F8018CA5EB0B03934232
:1034B80021D000230A220499204600F0E1F8B14502
:1034C80004904FF000034FF00A024946204605D108
:1034D80000F0D6F881460646059576E700F0D0F864
:1034E8003146814600230A22204600F0C9F80646E4
:1034F800F2E74FF0000901220499204600F036FA5D
:103508003946049000F086FA0028B6DC02D118F09B
:10351800010FB2D115F8013C302B05F1FF327FF4D1
:103528000AAF1546F6E7934505D131230AF1010A9A
:103538008BF80030FFE615469FE7DFF864B007E038
:10354800219BDFF860B01BB10BF10803219A1360CF
:10355800584617B0BDE8F08F069B012B7FF735AEB4
:103568000E9B079349E6029B002B03DC069B022B6C
:103578003FF7CCAE5D4639460498FFF7CEF900F127
:10358800300805F8018B029AA5EB0B039A42B0DDCF
:1035980000230A220499204600F072F80490EAE712
:1035A800383D00083A3D0008044B1B68186A044B74
:1035B800002808BF1846F030704700BF1C000020E4
:1035C80080000020024B0146186800F0F7BA00BFDF
:1035D8001C00002010B5431E0A44914200D110BDC2
:1035E80011F8014B03F8014FF7E770B5456A044637
:1035F8000E463DB91020FFF7E5FF6062C0E90155AE
:103608000560C560656AEB6883B1636ADB6853F877
:103618002600B8B9012101FA06F56A1D9200204674
:1036280000F0BEFA60B1C0E901650EE02122042174
:10363800204600F0B5FA636AE860DB68002BE4D145
:10364800002070BD026843F826200023C0E9033338
:10365800F7E770B5446A06460D463CB91020FFF7F7
:10366800B1FF7062C0E901440460C4603DB1736A8F
:103678006A68DB6853F82210296043F8225070BD4D
:103688002DE9F0410D691F4606460C4601F1140C60
:103698000023DCF8000081B202FB01710F0C000C62
:1036A80002FB007089B2013301EB00419D424FEAF1
:1036B80010474CF8041BECDCD7B1A368AB4212DC12
:1036C800616830460131FFF790FF2269023204F148
:1036D8000C01804692000C30FFF77CFF21463046F3
:1036E800FFF7B7FF444604EB850301355F612561A9
:1036F8002046BDE8F081020C12040346B2B9030467
:10370800102013F07F4F04BF1B02083013F0704FD6
:1037180004BF1B01043013F0404F04BF9B0002306C
:10372800002B06DB5B0003D5013070470020E8E77B
:1037380020207047036813F0070201460BD0DA0710
:1037480023D4980749BF5B089B0801200B605CBF26
:103758000B600220704798B2A8B91B0C102013F018
:10376800FF0F04BF1B0A08301A0704BF1B090430E7
:103778009A0704BF9B080230DA0702D45B0806D018
:1037880001300B6070471046E9E7002070472020A1
:10379800704710B50C460121FFF727FF012244614D
:1037A800026110BD2DE9F74F14460A6923699A4250
:1037B800B8BF0B468846BCBFA0461C46D8F8107058
:1037C800D4F81090D8F80830D8F8041007EB090698
:1037D800B342B8BF0131FFF708FF00F1140505EB4C
:1037E800860E2B460022734516D304F1140208F105
:1037F800140102EB890301EB87070093009B0192F8
:1038080093420CD8002E03DD5EF8043D002B5DD0FA
:10381800066103B0BDE8F08F43F8042BE3E7B2F884
:1038280000B0BBF1000F23D08946AC464FF000082A
:1038380059F8044BDCF800A0A3B21FFA8AFA0BFB74
:1038480003A34FEA144ADCF8004043444FEA144803
:103858000BFB0A8404EB1344E2469BB243EA04439D
:103868004F454FEA14484AF8043B2BD8CCF804805B
:10387800019BB3F802A00432BAF1000F20D02B68E4
:103888008946A8464FF0000BB9F800C0B8F80240C6
:103898000AFB0C445C44C4469BB243EA04434CF81C
:1038A800043B59F8043BB8F804B01B0C0AFB03B3FB
:1038B80003EB14434F454FEA134B05D8C8F80430BF
:1038C80004359BE7D446B3E7E046DDE7013E99E7D8
:1038D8002DE9F843154612F0030206460F4607D0B5
:1038E800013A214C002354F82220FFF7C9FE07466D
:1038F800AD1035D0746A3CB91020FFF763FE7062D2
:10390800C0E901440460C460D6F82480D8F80840AF
:103918004CB940F271213046FFF73BFF0023C8F84D
:103928000800044603604FF00008EB070AD5394643
:1039380022463046FFF736FF394681463046FFF7C4
:1039480088FE4F466D100BD0206838B922462146B4
:103958003046FFF727FF2060C0F800800446E4E700
:103968003846BDE8F88300BF383E00082DE9F04727
:103978000C464FEA621A236949680AEB0309A368EF
:103988000746164609F10105AB4232DB3846FFF718
:103998002CFE0023804600F114011A4653452BDB08
:1039A80020692AEAEA7A04F1140316F01F0201EBEF
:1039B8008A0103EB800C25D0C2F1200E00201E687E
:1039C8008A46964030434AF8040B53F8040B9C454A
:1039D80020FA0EF014D8486008B109F10205013D3B
:1039E8003846C8F810502146FFF733FE4046BDE878
:1039F800F08701315B00C7E741F823200133CDE7A9
:103A08005146DCE7043953F8042B41F8042F9C4550
:103A1800F9D8E4E703690A699B1A30B50CD192001A
:103A2800143014318418114454F8045D51F8042DED
:103A3800954203D005D30123184630BDA042F3D3E5
:103A4800FAE74FF0FF33F7E72DE9F0470D46074651
:103A5800114628461446FFF7DDFF061E08D13146F9
:103A68003846FFF7C2FD0123C0E90436BDE8F087F8
:103A7800A4BF23462C4638466168A6BF1D460026CB
:103A88000126FFF7B2FD2B69C660266905F1140906
:103A980004F1140202EB860709EB830800F1140510
:103AA8004FF0000E52F804AB59F8044B1EFA8AF195
:103AB800A3B2C91A230CC3EB1A4303EB214389B2FF
:103AC8004FEA234EC84541EA0343944645F8043B70
:103AD800E8D8BC4504D355F8043D83B10661C5E771
:103AE8005CF8041B1EFA81F31A1402EB11429BB214
:103AF80043EA02434FEA224E45F8043BE9E7013E18
:103B0800E9E72DE9F7430E46012159EC108B1546DC
:103B1800FFF76BFDC9F30A540746C9F3130334BB17
:103B28000193B8F1000327D002A840F8083DFFF739
:103B380001FE0099F0B1019AC0F1200302FA03F3E3
:103B48000B43C2407B610192019BBB61002B14BFF8
:103B5800022101213961C4B1A4F233440444346020
:103B6800C0F135002860384603B0BDE8F08343F45F
:103B78008013D5E77961E7E701A8FFF7DBFD019B33
:103B88007B61012139612030E5E707EB8103A0F271
:103B9800324030601869FFF7AEFDC0EB4110E1E735
:103BA80038B502FB01F4214600F008F8054618B1C3
:103BB80022460021FEF760FB284638BD70B5CD1CB3
:103BC80025F0030508350C2D38BF0C25002D0646B9
:103BD80001DBA94203D90C233360002070BD00F03B
:103BE80069F8214A1468214691B9204C23681BB909
:103BF800304600F03DF820602946304600F038F89D
:103C0800431C24D10C233360304600F054F8E4E719
:103C18000B685B1B18D40B2B0FD90B60CD50CC183D
:103C2800304600F048F804F10B00231D20F007008F
:103C3800C31AD3D05A42E250D0E78C424B6816BF21
:103C4800636013600C46EBE70C464968CCE7C41C7C
:103C580024F00304A04205D0211A304600F008F8E9
:103C68000130CFD02560DBE7080200200C020020DD
:103C780038B5064C002305460846236000F02AF8AC
:103C8800431C02D1236803B12B6038BD9402002085
:103C980082B001B901A942B14BB113780B60127817
:103CA800101C18BF012002B070471046FBE76FF0E8
:103CB8000100F8E77047704749B1FF2A85BF8A239A
:103CC80003600A704FF0FF3098BF01207047084624
:103CD80070470000044A05491368002B08BF0B46CB
:103CE80018441060184670471002002098020020FF
:103CF800F8B500BFF8BC08BC9E467047F8B500BFD1
:083D0800F8BC08BC9E467047A0
:103D1000000000000000000001020304060708097B
:103D20000000000001020304494E4600696E66006F
:103D30004E414E006E616E003000496E66696E69DC
:103D40007479004E614E00000080E03779C3414332
:103D5000176E05B5B5B89346F5F93FE9034F384DF1
:103D6000321D30F94877825A3CBF737FDD4F15759D
:103D7000000000000000F03F0000000000002440B0
:103D800000000000000059400000000000408F408B
:103D9000000000000088C34000000000006AF840F6
:103DA0000000000080842E4100000000D01263411A
:103DB0000000000084D797410000000065CDCD4190
:103DC000000000205FA00242000000E87648374271
:103DD000000000A2941A6D42000040E59C30A2420F
:103DE0000000901EC4BCD64200003426F56B0C4384
:103DF0000080E03779C3414300A0D885573476432B
:103E000000C84E676DC1AB43003D9160E458E1438B
:103E1000408CB5781DAF154450EFE2D6E41A4B4400
:103E200092D54D06CFF08044F64AE1C7022DB54445
:103E3000B49DD9794378EA440500000019000000D8
:103E40007D0000004300504F534958002E000020D1
:103E5000202020202020202028282828282020203A
:103E600020202020202020202020202020202088EA
:103E7000101010101010101010101010101010044E
:103E8000040404040404040404101010101010109E
:103E90004141414141410101010101010101010192
:103EA00001010101010101010101101010101010A8
:103EB0004242424242420202020202020202020262
:103EC000020202020202020202021010101020007E
:103ED00000000000000000000000000000000000E2
:103EE00000000000000000000000000000000000D2
:103EF00000000000000000000000000000000000C2
:103F000000000000000000000000000000000000B1
:103F100000000000000000000000000000000000A1
:103F20000000000000000000000000000000000091
:103F30000000000000000000000000000000000081
:103F40000000000000000000000000000000000071
:083F5000B8C2FF7F0100000070
:043F5800BD0100089F
:043F5C0099010008BF
:103F60000100000010000000A8610000D430000033
:103F70006A180000350C00000024F4002000002026
:103F80000000000000000000000000000000000031
:103F90000000000000000000000000000000000021
:103FA0000000000000000000000000000000000011
:103FB0000000000000000000000000000000000001
:103FC00000000000000000000000000000000000F1
:103FD00000000000000000000000000000000000E1
:103FE000430000000000000000000000000000008E
:103FF00000000000000000000000000000000000C1
:10400000430000000000000000000000000000006D
:1040100000000000000000000000000000000000A0
:10402000430000000000000000000000000000004D
:104030000000000000000000000000000000000080
:10404000430000000000000000000000000000002D
:104050000000000000000000000000000000000060
:10406000430000000000000000000000000000000D
:104070000000000000000000000000000000000040
:1040800043000000000000000000000000000000ED
:104090000000000000000000000000000000000020
:1040A00043000000000000000000000000000000CD
:1040B0000000000000000000000000000000000000
:1040C000C13C0008993C0008000000004E3E00087A
:1040D0004C3E00084D3E00084D3E00084D3E000895
:1040E0004D3E00084D3E00084D3E00084D3E000884
:1040F0004D3E00084D3E0008FFFFFFFFFFFFFFFFA2
:10410000FFFFFFFFFFFF000001004153434949004B
:10411000000000000000000000000000000000009F
:104120000000000000000000000041534349490026
:10413000000000000000000000000000000000007F
:0C41400000000000000000000000000073
:04000005080021E5E9
:00000001FF
